:060000000A128A11FC2F18
:100F2E0083160313880183120313880100300A12FB
:100F3E008A11CB270A128A110130FB007B0883121B
:100F4E00031388079D2FF401F501701CB42F72084E
:100F5E00F4070318F50A7308F50701300310F20DB4
:100F6E00F30DFF3E031DB52F01300310F10CF00CF5
:100F7E00FF3E031DBC2F70087104031DAC2F7508B6
:100F8E00F1007408F0000800F8006030F6007608F2
:100F9E00F900831603138112811107308104FA01BF
:100FAE007808F600F7017608F0007708F1001430A3
:100FBE00F2000030F3000A128A11AA270A128A11CF
:100FCE007108803A803C031DEE2F70087A020318D8
:100FDE00080079088312031381000B1DF42F0B11E7
:100FEE000130F6007608FA07D72F83010A128A110C
:020FFE00972F2B
:00000001FF
