:060000000A128A11122809
:10000800FE00030EF1000408F2000A08F300831250
:1000180003137F08F4000A128A111B280A128A1196
:100028001528F501F60183010A128A113C280B1DD7
:1000380031289C3081000130F5070318F60A00309A
:10004800F607203075067604031D30280130F000CD
:1000580070088807F501F6010B117408FF00730892
:100068008A0072088400710E8300FE0E7E0E09005D
:10007800831603138801831203138801A0308B00B1
:0E0088008316031381128111073081044A2868
:00000001FF
